{
  "address": "0x1c844e8dFDd767aF35f25dE4f12007f1188EA9e9",
  "abi": [
    {
      "inputs": [
        {
          "internalType": "address",
          "name": "exampleExternalContractAddress",
          "type": "address"
        }
      ],
      "stateMutability": "nonpayable",
      "type": "constructor"
    },
    {
      "anonymous": false,
      "inputs": [
        {
          "indexed": false,
          "internalType": "address",
          "name": "from",
          "type": "address"
        },
        {
          "indexed": false,
          "internalType": "uint256",
          "name": "value",
          "type": "uint256"
        }
      ],
      "name": "Stake",
      "type": "event"
    },
    {
      "inputs": [
        {
          "internalType": "address",
          "name": "",
          "type": "address"
        }
      ],
      "name": "balances",
      "outputs": [
        {
          "internalType": "uint256",
          "name": "",
          "type": "uint256"
        }
      ],
      "stateMutability": "view",
      "type": "function"
    },
    {
      "inputs": [],
      "name": "deadline",
      "outputs": [
        {
          "internalType": "uint256",
          "name": "",
          "type": "uint256"
        }
      ],
      "stateMutability": "view",
      "type": "function"
    },
    {
      "inputs": [],
      "name": "exampleExternalContract",
      "outputs": [
        {
          "internalType": "contract ExampleExternalContract",
          "name": "",
          "type": "address"
        }
      ],
      "stateMutability": "view",
      "type": "function"
    },
    {
      "inputs": [],
      "name": "execute",
      "outputs": [],
      "stateMutability": "nonpayable",
      "type": "function"
    },
    {
      "inputs": [],
      "name": "stake",
      "outputs": [],
      "stateMutability": "payable",
      "type": "function"
    },
    {
      "inputs": [],
      "name": "threshold",
      "outputs": [
        {
          "internalType": "uint256",
          "name": "",
          "type": "uint256"
        }
      ],
      "stateMutability": "view",
      "type": "function"
    },
    {
      "inputs": [],
      "name": "timeLeft",
      "outputs": [
        {
          "internalType": "uint256",
          "name": "",
          "type": "uint256"
        }
      ],
      "stateMutability": "view",
      "type": "function"
    },
    {
      "inputs": [],
      "name": "withdraw",
      "outputs": [],
      "stateMutability": "nonpayable",
      "type": "function"
    },
    {
      "stateMutability": "payable",
      "type": "receive"
    }
  ],
  "transactionHash": "0xfe7eab52bda0812552a93adbfa90cd9b2fb7132ed2c96396024f0f729940c176",
  "args": [
    "0x5de390742DfA0427B2e1C145Bb5728dd9790a996"
  ],
  "numDeployments": 1,
  "solcInputHash": "4bb05548c8699b36cb2bb8d00213f789",
  "bytecode": "0x60806040526100114262046500610092565b60015534801561002057600080fd5b5060405161075b38038061075b83398101604081905261003f91610064565b600080546001600160a01b0319166001600160a01b03929092169190911790556100b6565b600060208284031215610075578081fd5b81516001600160a01b038116811461008b578182fd5b9392505050565b600082198211156100b157634e487b7160e01b81526011600452602481fd5b500190565b610696806100c56000396000f3fe60806040526004361061007f5760003560e01c80633ccfd60b1161004e5780633ccfd60b1461010657806342cde4e81461011b57806361461954146101375780639f75f2271461014c57600080fd5b80631300a6d11461009357806327e235e3146100bb57806329dcb0cf146100e85780633a4b66f1146100fe57600080fd5b3661008e5761008c610184565b005b600080fd5b34801561009f57600080fd5b506100a8610258565b6040519081526020015b60405180910390f35b3480156100c757600080fd5b506100a86100d6366004610596565b60026020526000908152604090205481565b3480156100f457600080fd5b506100a860015481565b61008c610184565b34801561011257600080fd5b5061008c61029e565b34801561012757600080fd5b506100a8670de0b6b3a764000081565b34801561014357600080fd5b5061008c6103bb565b34801561015857600080fd5b5060005461016c906001600160a01b031681565b6040516001600160a01b0390911681526020016100b2565b336101aa5760405162461bcd60e51b81526004016101a1906105e4565b60405180910390fd5b600034116101fa5760405162461bcd60e51b815260206004820152601a60248201527f4e656761746976652076616c7565206e6f7420616c6c6f77656400000000000060448201526064016101a1565b336000908152600260205260408120805434929061021990849061061b565b9091555050604080513381523460208201527febedb8b3c678666e7f36970bc8f57abf6d8fa2e828c0da91ea5b75bf68ed101a910160405180910390a1565b6000336102775760405162461bcd60e51b81526004016101a1906105e4565b6000600154421061028a57506000919050565b426001546102989190610633565b92915050565b33600081815260026020526040902054906102cb5760405162461bcd60e51b81526004016101a1906105e4565b8047101561031b5760405162461bcd60e51b815260206004820152601e60248201527f496e73756666696369656e742066756e647320696e20636f6e7472616374000060448201526064016101a1565b336000818152600260205260408082208290555190919083908381818185875af1925050503d806000811461036c576040519150601f19603f3d011682016040523d82523d6000602084013e610371565b606091505b50509050806103b75760405162461bcd60e51b81526020600482015260126024820152714661696c6564207769746864726177616c2160701b60448201526064016101a1565b5050565b60008054906101000a90046001600160a01b03166001600160a01b0316639d9a7fe96040518163ffffffff1660e01b815260040160206040518083038186803b15801561040757600080fd5b505afa15801561041b573d6000803e3d6000fd5b505050506040513d601f19601f8201168201806040525081019061043f91906105c4565b1561049e5760405162461bcd60e51b815260206004820152602960248201527f4578616d706c6545787465726e616c436f6e747261637420616c72656164792060448201526818dbdb5c1b195d195960ba1b60648201526084016101a1565b336104bb5760405162461bcd60e51b81526004016101a1906105e4565b6001544210156105045760405162461bcd60e51b8152602060048201526014602482015273111958591b1a5b99481b9bdd081c995858da195960621b60448201526064016101a1565b600154421015801561051e5750670de0b6b3a76400004710155b1561058c5760008054906101000a90046001600160a01b03166001600160a01b031663522e1177476040518263ffffffff1660e01b81526004016000604051808303818588803b15801561057157600080fd5b505af1158015610585573d6000803e3d6000fd5b5050505050565b61059461029e565b565b6000602082840312156105a7578081fd5b81356001600160a01b03811681146105bd578182fd5b9392505050565b6000602082840312156105d5578081fd5b815180151581146105bd578182fd5b60208082526018908201527f41646472657373205a65726f206e6f7420616c6c6f7765640000000000000000604082015260600190565b6000821982111561062e5761062e61064a565b500190565b6000828210156106455761064561064a565b500390565b634e487b7160e01b600052601160045260246000fdfea264697066735822122090f2df3a45048b4abf3666a1dee940d481a8d6e6a4ded4b53bbb38bab9e1188464736f6c63430008040033",
  "devdoc": {
    "kind": "dev",
    "methods": {},
    "version": 1
  },
  "userdoc": {
    "kind": "user",
    "methods": {},
    "version": 1
  },
  "storageLayout": {
    "storage": [
      {
        "astId": 19,
        "contract": "contracts/Staker.sol:Staker",
        "label": "exampleExternalContract",
        "offset": 0,
        "slot": "0",
        "type": "t_contract(ExampleExternalContract)12"
      },
      {
        "astId": 40,
        "contract": "contracts/Staker.sol:Staker",
        "label": "deadline",
        "offset": 0,
        "slot": "1",
        "type": "t_uint256"
      },
      {
        "astId": 44,
        "contract": "contracts/Staker.sol:Staker",
        "label": "balances",
        "offset": 0,
        "slot": "2",
        "type": "t_mapping(t_address,t_uint256)"
      }
    ],
    "types": {
      "t_address": {
        "encoding": "inplace",
        "label": "address",
        "numberOfBytes": "20"
      },
      "t_contract(ExampleExternalContract)12": {
        "encoding": "inplace",
        "label": "contract ExampleExternalContract",
        "numberOfBytes": "20"
      },
      "t_mapping(t_address,t_uint256)": {
        "encoding": "mapping",
        "key": "t_address",
        "label": "mapping(address => uint256)",
        "numberOfBytes": "32",
        "value": "t_uint256"
      },
      "t_uint256": {
        "encoding": "inplace",
        "label": "uint256",
        "numberOfBytes": "32"
      }
    }
  }
}